:100DB500011500011C00010D0001130001160001C1
:0B0DC5000E00010C00011B00011400D7
:10020100121192120F23120D4B121152A2AF920032
:10021100C2AF75C7AA75C75543AA40A20092AFA243
:10022100AF9200C2AF75C7AA75C75543AA40A200D5
:1002310092AF1211D78F0B8E0A8D098C08E50C60D5
:100241002FB286C3E50D9406748094805006B2DF08
:10025100B2918004C2DFC291050DC3E50D942874EB
:10026100809480400BC2DFC291C286E4F50DF50C8B
:100271001211D7C3EF950BFFEE950AFEED9509FD1F
:10028100EC9508FCE47BF47A01F9F8D312092250C9
:1002910003020366A2AF9200C2AF75C7AA75C75524
:1002A10043AA40A20092AF7B007A007917A297E49B
:1002B10033FD120E7AEF60B8AF25AE24AD23AC2228
:1002C100AB1AAA19A918A817C31209227013750C21
:1002D10001D3E50D9406748094804094E4F50D807B
:1002E1008FAF29AE28AD27AC26AB1AAA19A918A839
:1002F10017C312092270300515E5147024C3E515E2
:100301009446748094805003020271120CDCD286F0
:100311001211D78F128E118D108C0F750E010202E2
:1003210071120ECF020271AF2DAE2CAD2BAC2AABE8
:100331001AAA19A918A817C3120922600302027187
:10034100051CC3E51C94287480948050030202713B
:10035100E4F51CE51B70047F0180027F008F1B12F6
:1003610006A4020271E51464016003020220121165
:10037100D7C3EF9512FFEE9511FEED9510FDEC95AB
:100381000FFCE47B107A27F9F8C31209224003021B
:100391000220E50E64016003020220F50EC286D23E
:1003A100DF7FBC7E02FDFC120F77C2DF7F2C7E0156
:1003B1007D007C00120F77A2AF9200C2AF75C7AA71
:1003C10075C75543AA40A20092AFD2DF7FBC7E021F
:0C03D1007D007C00120F77C2DF020220CA
:100CDC00A2AF9200C2AF75C7AA75C75543AA40A26E
:100CEC000092AFD286D2DFD2917FBC7E027D007C97
:100CFC0000120F77C291A2AF9200C2AF75C7AA754E
:100D0C00C75543AA40A20092AF7FBC7E027D007CF7
:100D1C0000120F77A2AF9200C2AF75C7AA75C75564
:100D2C0043AA40A20092AF7FBC7E027D007C0012E1
:0F0D3C000F77C2DFD287E4F515751401C2862246
:100ECF00E4F553F554A2AF9200C2AF75C7AA75C728
:100EDF005543AA40A20092AFD2DFD2917FBC7E02CF
:100EEF007D007C00120F77C291C2DF7F2C7E017DC7
:100EFF00007C00120F770554E55470020553C3941C
:100F0F0002E5536480948040BC750D28C286E4F5D9
:030F1F0014C28772
:010F220022AC
:1006A400EF607BD2DFD291D2867FBC7E027D007C5C
:1006B40000120F77C2DFC291C2867F2C7E017D00BB
:1006C4007C00120F77A2AF9200C2AF75C7AA75C79C
:1006D4005543AA40A20092AFD291D2867FBC7E023B
:1006E4007D007C00120F77C291C2867F2C7E017D33
:1006F400007C00120F77A2AF9200C2AF75C7AA7533
:10070400C75543AA40A20092AFD291D2867FBC7E45
:10071400027D007C00120F77C291C286807CD2DFFA
:100724007FBC7E027D007C00120F77A2AF9200C2D4
:10073400AF75C7AA75C75543AA40A20092AF7FBC44
:100744007E027D007C00120F77A2AF9200C2AF75CB
:10075400C7AA75C75543AA40A20092AF7FBC7E02C8
:100764007D007C00120F77C2DF7F2C7E017D007C30
:1007740000120F77A2AF9200C2AF75C7AA75C75512
:1007840043AA40A20092AFD2DFD2917FBC7E027D09
:10079400007C00120F77C2DFC291A2AF9200C2AFF9
:0E07A40075C7AA75C75543AA40A20092AF229E
:100DD00010220000000000000000000000000000E1
:100DE00000000121000F34FF1077FF0C5DFF10ACF5
:100DF000FF10D6FF0A300132000133000443000027
:020E00000000F0
:10107700309531AFE5EFFEADE47C00E42DFFEC3EAB
:10108700FED3EF9478EE94054017EF94DCEE9405C9
:10109700500FE4F533F546F545F544F54375320150
:0410A70022E4F53218
:0110AB002222
:100C5D0020957BAFE5EFFEADE47C00E42DFFEC3E8F
:100C6D00FED3EF9496EE94004023EF94FAEE9400A9
:100C7D00501BAF46AE45AD44AC4378011209338FDE
:100C8D00468E458D448C43053375320222D3EF9445
:100C9D0044EE94024035EF94A8EE9402502DAF46E9
:100CAD00AE45AD44AC4378011209338F468E458D68
:100CBD00448C43E5464401F546E545F545E544F5E7
:0E0CCD0044E543F543053375320322E4F53266
:010CDB0022F6
:1010AC00309526AFE5EFFEADE47C00E42DFFEC3E81
:1010BC00FED3EF9444EE9402400CEF94A8EE94020D
:0910CC00500475320122E4F532F2
:0110D50022F8
:1010D600309526AFE5EFFEADE47C00E42DFFEC3E57
:1010E600FED3EF9496EE9400400CEF94FAEE940043
:0910F600500475320122E4F532C8
:0110FF0022CE
:100A3000E52125E025E02422F8120960AB46AA450D
:100A4000A944A843C3120922606EC3E5219401742E
:100A50008094805002801AE52125E025E0241EF8CC
:100A6000120960AB46AA45A944A843C312092260F3
:100A700014AF46AE45AD44AC43E52125E025E02466
:100A800022F812096CE4F557F558E52175F002A437
:100A9000FFC3E5589FE5F06480F8E55764809850FF
:100AA00021B2B07FC87E007D007C00120F77055810
:100AB000E55870D6055780D20521E5216403700200
:020AC000F5003F
:010AC2002211
:0F11BB0053C8FE75C98943C92053C9AFD2CA2290
:1011A8005393FC43930253F1F043F10843921043E5
:0311B8009410226E
:100F2300E4F532F546F545F544F543F5331211A8DA
:100F33001211BBF553F554E55475F004A42422F9BA
:100F4300E4FAFBAE53E5547802C333CE33CED8F97B
:100F530024F0FFEE343FFE755A00755B0412103F18
:100F63000554E55470020553C39403E55364809418
:030F73008040C4F7
:010F76002258
:100E7A008B538A5489558D5630CF05C2CFE4F5324B
:100E8A00E59230E03DE53275F003A42434F808E633
:100E9A00FA08E6F91209785392FEE53364187022CB
:100EAA00F533E5567005120A308011AF46AE45ADEE
:100EBA0044AC43AB53AA54A955120946E4F5327F10
:050ECA0001227F00225F
:060E020004750000000071
:03000B0002112AB5
:10112A00C0E0C0D0C091758CC1758AE0E578240111
:10113A00F578E43577F577E43576F576E43575F5BF
:08114A0075D091D0D0D0E03245
:101192005389F0438901438E08758CC1758AE0D268
:0611A200A9D2AFD28C229D
:0911D700AF78AE77AD76AC75225D
:080F77008F5C8E5B8D5A8C59D2
:100F7F00E4F583F582AF82AE83EE3395E0FDFCABF3
:0D0F8F005CAA5BA95AA859D3120922402878
:100F9C00E4F55EC3E55E9403748094805017E4F529
:100FAC005DC3E55D94FF74809480500500055D8001
:050FBC00F0055E80DE7F
:030FC100A380C04A
:010FC400220A
:100D4B00A2AF9200C2AF75C7AA75C755E4F591A2C1
:100D5B000092AF53B3FE43B401A2AF9200C2AF7582
:100D6B00C7AA75C755F591A20092AF53B3FD43B413
:100D7B0002A2AF9200C2AF75C7AA75C755F591A273
:100D8B000092AF53B1BF43B240A2AF9200C2AF7556
:100D9B00C7AA75C755F591A20092AF53B17F43B265
:0A0DAB0080D290C286C287C2912256
:10115200D2DC538EBF53DF0775D13E75D97F75D56B
:101162001F75DD4053B1FE43B20143DE08C2DF22E8
:0F0E0800044F00000000014800014701014900AC
:030013000211CA0D
:0D11CA00C091C28B754E01754801D0913265
:10117200A2AF9200C2AF75C7AA75C755E4F591A296
:101182000092AF43B38053B47FD28AD2AAD2AF22A5
:100B4D00E5487003020BD3A297E433F5476549607E
:100B5D000E1211D78F528E518D508C4F85474912E1
:100B6D0011D7C3EF9552FFEE9551FEED9550FDEC6B
:100B7D00954FFCE47B0FFAF9F8C31209225047E5B3
:100B8D004EFD7C006401700AE547700685474E7F77
:100B9D000122ED4C702BE54770271211D7C3EF954D
:100BAD0052FFEE9551FEED9550FDEC954FFCE47B1B
:100BBD00D07A07F9F8C3120922500BE4F5487F02E9
:090BCD0022E4F548FF227F032217
:0207B200A90795
:1007B400E4F591E924F9600C1460092402700875C9
:1007C400A638800375A630A2AF9200C2AF75C7AA3F
:1007D40075C755439F01A20092AFE4F5A775AF0416
:1007E400A2AF9200C2AF75C7AA75C75543A401A2B0
:1007F4000092AFADAE05A6A2AF9200C2AF75C7AA74
:1008040075C75543A401A20092AFACAEE924F870B9
:100814006FED25E0FFE433FEEC54017A002FFFEA8C
:100824003EFE74F22FFF74FF3EFE75AF0C75A601F9
:10083400E4F5A7A2AF9200C2AF75C7AA75C7554326
:10084400A401A20092AFABAEEB644B600EABAEEB77
:1008540064526007ABAEEB6453701BED543FC3941A
:100864000774809480500A74F62FFF74FF3EFE8054
:1008740005EF1F70011EEF5401FCEEC313EF13FDCF
:1008840075C7AA75C7558D8475C7AA75C7558C8554
:10089400A2AF9200C2AF75C7AA75C755539FFEA2F7
:0308A4000092AF10
:0108A700222E
:100FC500EF24FD6011146012240270357F021210A7
:100FD500077F02020E187F0380117F021210077F20
:100FE50002120E187F041210077F04120E18A2AF0A
:100FF5009200C2AF75C7AA75C7555397DFA2009275
:02100500AF2218
:10100700EF24FC60212402702EA2AF9200C2AF75BC
:10101700C7AA75C755439720A20092AFE59644DF4C
:1010270064DF701380F675C7AA75C7554397C0E587
:081037009644F764F760F8220B
:10110000E4F591EF24FC60182402701DA2AF920058
:10111000C2AF75C7AA75C7555397DFA20092AF2219
:0A11200075C7AA75C75553973F2203
:100E1800E4F591A2AF9200C2AFEF24FD6018146010
:100E28003924027048A2AF9200C2AF75C7AA75C72D
:100E3800555396FB800FA2AF9200C2AF75C7AA7533
:100E4800C755439604A20092AFA2AF9200C2AF75F5
:100E5800C7AA75C7555396FD800FA2AF9200C2AFBF
:100E680075C7AA75C755439608A20092AFA200920B
:020E7800AF22A7
:100BD600A2AF9200C2AF75C7AA75C755439F01A2BF
:100BE6000092AF75A604E4F5A775AE0F75AFE1A246
:100BF600AF9200C2AF75C7AA75C75543A504A20038
:100C060092AFA2AF9200C2AF75C7AA75C75543A4EB
:100C160001A20092AFE59F5440644060F8A2AF92F3
:100C260000C2AF75C7AA75C75553A5FBA20092AF00
:100C3600A2AF9200C2AF75C7AA75C755539FFEA251
:100C46000092AFA2AF9200C2AF75C7AA75C755434F
:070C56009F80A20092AF2273
:1003DD00A2AF9200C2AF75C7AA75C755439F01A2C0
:1003ED000092AFE4F5A6F5A775AFC0A2AF9200C21B
:1003FD00AF75C7AA75C75543A401A20092AFAFAEA2
:10040D0075A601A2AF9200C2AF75C7AA75C75543B5
:10041D00A401A20092AFAEAE75A602A2AF9200C229
:10042D00AF75C7AA75C75543A401A20092AFADAE73
:10043D0075A603A2AF9200C2AF75C7AA75C7554383
:10044D00A401A20092AFACAE75A604A2AF9200C2F9
:10045D00AF75C7AA75C75543A401A20092AFABAE45
:10046D004303F0A2AF9200C2AF75C7AA75C755433B
:10047D00A504A20092AF75AFE2F5A7F5A675AEFF84
:10048D00A2AF9200C2AF75C7AA75C75543A401A20A
:10049D000092AF75AFE18FAEA2AF9200C2AF75C73C
:1004AD00AA75C75543A401A20092AF75A6018EAEE1
:1004BD00A2AF9200C2AF75C7AA75C75543A401A2DA
:1004CD000092AF75A6028DAEA2AF9200C2AF75C7F6
:1004DD00AA75C75543A401A20092AF75A6038CAEB1
:1004ED00A2AF9200C2AF75C7AA75C75543A401A2AA
:1004FD000092AF75A6048BAEA2AF9200C2AF75C7C6
:10050D00AA75C75543A401A20092AFA2AF9200C233
:10051D00AF75C7AA75C75543A504A20092AFA2AF88
:10052D009200C2AF75C7AA75C755539FFEA2009220
:10053D00AFE5AA30E326A2AF9200C2AF75C7AA7588
:10054D00C75553AAF7A20092AFA2AF9200C2AF75E2
:0C055D00C7AA75C755439F80A20092AF4B
:01056900226F
:06056A008E6F8F708D7191
:10057000E4F572E5707807CEC313CE13D8F9780787
:10058000C333CE33CED8F9F5748E73E4F572C3E578
:100590007294807480948050257E00E5742572FFEB
:1005A000EE3573FAA9077BFF1200037E0074002565
:1005B00072F582E43400F583EFF0057280D07E009E
:1005C000E570547F2400F582EE3400F583E571F088
:1005D000E574F5A6E573F5A775AEFFA2AF9200C26C
:1005E000AF75C7AA75C755439F01A20092AFA2AFCE
:1005F0009200C2AF75C7AA75C75543A501A2009264
:10060000AF75AF22A2AF9200C2AF75C7AA75C7552A
:1006100043A401A20092AFA2AF9200C2AF75C7AAD5
:1006200075C755439F01A20092AFA2AF9200C2AF1F
:1006300075C7AA75C75543A501A20092AF75AF2132
:10064000E4F572C3E572948074809480502FE57451
:100650002572F5A6E573F5A774002572F582E434DA
:1006600000F583E0F5AEA2AF9200C2AF75C7AA75E0
:10067000C75543A401A20092AF057280C6A2AF92F3
:1006800000C2AF75C7AA75C75553A5FEA20092AFA9
:10069000A2AF9200C2AF75C7AA75C755539FFEA2FD
:0306A0000092AF16
:0106A3002234
:0A0AC3008E5F8F608B618A62896389
:100ACD00E5607807CEC313CE13D8F9FDE560256533
:100ADD00FFE55F3564FEEF7807CEC313CE13D8F96B
:100AED00F566ED65666042AB61AA62A963756C80BF
:100AFD00AF60AE5F120016AC07EC2560F560E43513
:100B0D005FF55FEC2563F563E43562F562C3E5657A
:100B1D009FF565E5649400F564AE5FE5607807CEFA
:100B2D00C313CE13D8F9FD80B9E56545646010ABEC
:0F0B3D0061AA62A96385656CAF60AE5F12001696
:010B4C002286
:0A103F008E558F568B578A58895939
:10104900E4FFFEC3EF955BEE955A5021E5562FFD5F
:10105900E5553E8D82F583E493AB57AA58A9598F7C
:0D106900828E831208D50FBF00010E80D6C5
:011076002257
:0A0016008E678F688B698A6A896B18
:10002000A2AF9200C2AF75C7AA75C755439F01A280
:100030000092AFA2AF9200C2AF75C7AA75C7554371
:10004000A501A20092AFE568547FF56EC374809558
:100050006EF56DE56CD3956D4003856D6CAD68AC48
:1000600067E4F56DE56DC3956C5012ED256DF58275
:10007000E43CF583E493F47004056D80E7E56D6579
:100080006C707375AF218568A6E567F5A7E4F56D1B
:10009000E56DC3956C502AAB69AA6AA96B856D8220
:1000A0007583001208A8F5AEA2AF9200C2AF75C763
:1000B000AA75C75543A401A20092AF05A6056D809D
:1000C000CFE4F56DE56DC3956C5022AB69AA6AA9C2
:1000D0006B856D827583001208A8FFED256DF58292
:1000E000E43CF583E493B50704056D80D7E56D65C1
:1000F0006C70030201EBE5685480AC67FDE4F56DBC
:10010000C3E56D948074809480501DED256DF5825B
:10011000E43CF583E493FF7480256DF582E43400BC
:10012000F583EFF0056D80D8E4F56DE56DC3956C52
:100130005023AB69AA6AA96B856D8275830012088A
:10014000A8FFE56E256D2480F582E43400F583EF89
:10015000F0056D80D6E5685480F5A6E567F5A775CE
:10016000AF2275AEFFA2AF9200C2AF75C7AA75C726
:100170005543A401A20092AF75AF21E4F56DC3E52C
:100180006D94807480948050277480256DF582E48E
:100190003400F583E0F5AEA2AF9200C2AF75C7AAF6
:1001A00075C75543A401A20092AF05A6056D80CE88
:1001B000E4F56DAF6D7E00C3EF9480748094805041
:1001C00021ED256DF582E43CF583E493FB748025F5
:1001D0006DF582E43400F583E0FAEBB50204056DB9
:1001E00080D1EF64804E6003020155A2AF9200C23D
:1001F000AF75C7AA75C755539FFEA20092AFAF6CEB
:0102000022DB
:060003001208F7E5F0FF12
:0100090022D4
:030000000209965C
:10099600787FE4F6D8FD9000007FFF7E03E4F0A3A5
:0A09A600DFFCDEFA7581780209EB30
:1009B000020201E493A3F8E493A34003F68001F25A
:1009C00008DFF48029E493A3F85407240CC8C33348
:1009D000C4540F4420C8834004F456800146F6DF17
:1009E000E4800B0102040810204080900DB5E47EE5
:1009F000019360BCA3FF543F30E509541FFEE4930C
:100A0000A360010ECF54C025E060A840B8E493A3D2
:100A1000FAE493A3F8E493A3C8C582C8CAC583CAFD
:100A2000F0A3C8C582C8CAC583CADFE9DEE780BEB5
:010E170000DA
:1008A800BB010CE58229F582E5833AF583E0225005
:1008B80006E92582F8E622BBFE06E92582F8E2224F
:0D08C800E58229F582E5833AF583E4932269
:1008D500F8BB010DE58229F582E5833AF583E8F059
:1008E500225006E92582C8F622BBFE05E92582C805
:0208F500F222ED
:1008F700BB010A89828A83E0F5F0A3E022500687CC
:10090700F009E71922BBFE07E3F5F009E31922898D
:0B091700828A83E493F5F074019322C0
:10092200EB9FF5F0EA9E42F0E99D42F0E89C45F02B
:0109320022A2
:10093300E8600FEFC333FFEE33FEED33FDEC33FC22
:03094300D8F122C6
:10094600BB010789828A8302097E5005E9F80209FC
:0A0956006CBBFE05E9F802098A22D5
:0C096000E6FC08E6FD08E6FE08E6FF22C3
:0C096C00ECF608EDF608EEF608EFF622B7
:060978008A838982E4730A
:0C097E00ECF0A3EDF0A3EEF0A3EFF022EC
:0C098A00ECF208EDF208EEF208EFF222A9
:00000001FF
