:0607F700014C00014B0063
:1001A300120ABC120AE51206D6120A7C75C7AA7592
:1001B300C75543AA07A2AF9200C2AF75C7AA75C7B6
:1001C3005543AA40A20092AFA2AF9200C2AF75C737
:1001D300AA75C75543AA80A20092AFC286120B1418
:1001E3008F4A8E498D488C47120B14C3EF954AFFF3
:1001F300EE9549FEED9548FDEC9547FCE47B207AAE
:100203004EF9F8D312066240D2A2AF9200C2AF7584
:10021300C7AA75C75543AA40A20092AF7B007A00D4
:10022300794DAD4B1207A2EF6069AF2DAE2CAD2B0C
:10023300AC2AAB50AA4FA94EA84DC3120662701246
:10024300D286120B148F4A8E498D488C4712094669
:100253008041AF25AE24AD23AC22AB50AA4FA94EAB
:10026300A84DC31206627012054CC3E54C945A7430
:10027300809480401E120A588019AF29AE28AD27FA
:10028300AC26AB50AA4FA94EA84DC3120662700309
:100293001208D51204D3EF1460030201EBE4F52135
:1002A300E54B70047F0180027F008F4BE54B24FFF9
:0502B30092B00201EB16
:10094600E4F514F515D2DFD2917FE87E037D007CB5
:1009560000120845C291C2DF7FF47E017D007C0053
:100966001208450515E51570020514C39403E51430
:060976006480948040CF74
:01097C002258
:100A5800D2DFD2917FE87E037D007C00120845C278
:100A6800917FD07E077D007C00120845C2DFD287C7
:040A7800E4F54C2233
:1008D500E4F514F515D2DFD2917FE87E037D007C27
:1008E50000120845C291C2DF7FF47E017D007C00C5
:1008F5001208450515E51570020514C39402E514A3
:080905006480948040CFC2879A
:01090D0022C7
:1007FD0010220000000000000000000000000000BA
:10080D0000000121000F34FF097DFF05E3FF09B250
:10081D00FF09DCFF044801320001330004430000EE
:02082D000000C9
:10097D00309531AFE5EFFEADE47C00E42DFFEC3EAC
:10098D00FED3EF9478EE94054017EF94DCEE9405CA
:10099D00500FE4F533F546F545F544F54375320151
:0409AD0022E4F53219
:0109B1002223
:1005E30020957BAFE5EFFEADE47C00E42DFFEC3E10
:1005F300FED3EF9496EE94004023EF94FAEE94002A
:10060300501BAF46AE45AD44AC4378011206738F21
:10061300468E458D448C43053375320222D3EF94C5
:1006230044EE94024035EF94A8EE9402502DAF4669
:10063300AE45AD44AC4378011206738F468E458DAB
:10064300448C43E5464401F546E545F545E544F567
:0E06530044E543F543053375320322E4F532E6
:010661002276
:1009B200309526AFE5EFFEADE47C00E42DFFEC3E82
:1009C200FED3EF9444EE9402400CEF94A8EE94020E
:0909D200500475320122E4F532F3
:0109DB0022F9
:1009DC00309526AFE5EFFEADE47C00E42DFFEC3E58
:1009EC00FED3EF9496EE9400400CEF94FAEE940044
:0909FC00500475320122E4F532C9
:010A050022CE
:10044800E52125E025E02422F81206A0AB46AA45BE
:10045800A944A843C3120662606EC3E521940174DF
:100468008094805002801AE52125E025E0241EF8BA
:100478001206A0AB46AA45A944A843C31206626067
:1004880014AF46AE45AD44AC43E52125E025E02454
:1004980022F81206ACE4F518F519E52175F002A466
:1004A800FFC3E5199FE5F06480F8E518648098506B
:1004B80019B2B07FC87E007D007C0012084505197E
:0A04C800E51970D6051880D2052151
:0104D2002207
:0F0AF80053C8FE75C98943C92053C9AFD2CA225A
:100AD2005393FC43930253F1F043F10843921043C2
:030AE2009410224B
:100AE500E4F532F546F545F544F543F533120AD2FA
:030AF500020AF8FA
:1007A2008B148A1589168D1730CF05C2CFE4F53226
:1007B200E59230E03DE53275F003A42434F808E612
:1007C200FA08E6F91206B85392FEE533641870226D
:1007D200F533E51760051204488011AF46AE45AD0A
:1007E20044AC43AB14AA15A916120686E4F5327F6F
:0507F20001227F00223E
:06082F000451000000006E
:03000B00020A30B6
:100A3000C0E0C0D0C091758CC1758AE0E554240136
:100A4000F554E43553F553E43552F552E43551F598
:080A500051D091D0D0D0E0326A
:100ABC005389F0438901438E08758CC1758AE0D245
:060ACC00A9D2AFD28C227A
:090B1400AF54AE53AD52AC5122B6
:080845008F1D8E1C8D1B8C1A07
:10084D00E4F583F582AF82AE83EE3395E0FDFCAB2C
:0D085D001DAA1CA91BA81AD3120662402870
:10086A00E4F51FC3E51F941A748094805017E4F5C9
:10087A001EC3E51E94FF74809480500500051E80F7
:05088A00F0051F80DEF7
:03088F00A380C083
:010892002243
:1006D600A2AF9200C2AF75C7AA75C755E4F591A23D
:1006E6000092AF53B3FE43B401A2AF9200C2AF75FE
:1006F600C7AA75C755F591A20092AF53B3FD43B48F
:1007060002A2AF9200C2AF75C7AA75C755F591A2EE
:100716000092AF53B1BF43B240A2AF9200C2AF75D1
:10072600C7AA75C755F591A20092AF53B17F43B2E0
:0A07360080D290C286C287C29122D1
:100A7C00D2DC538EBF53DF0775D13E75D97F75D548
:100A8C001F75DD4053B1FE43B20143DE08C2DF22C5
:0F083500041000000000010900010801010A0081
:03001300020B07D6
:0D0B0700C091C28B750F01750901D09132AC
:100A9C00A2AF9200C2AF75C7AA75C755E4F591A273
:100AAC000092AF43B38053B47FD28AD2AAD2AF2282
:1004D300E5097003020559A297E433F508650A603C
:1004E3000E120B148F138E128D118C1085080A12A5
:1004F3000B14C3EF9513FFEE9512FEED9511FDEC72
:100503009510FCE47B0FFAF9F8C31206625047E535
:100513000FFD7C006401700AE508700685080F7FF3
:100523000122ED4C702BE5087027120B14C3EF95D5
:1005330013FFEE9512FEED9511FDEC9510FCE47B97
:10054300D07A07F9F8C3120662500BE4F5097F026B
:0905530022E4F509FF227F0322D6
:0202B800A90794
:1002BA00E4F591E924F9600C1460092402700875C8
:1002CA00A638800375A630A2AF9200C2AF75C7AA3E
:1002DA0075C755439F01A20092AFE4F5A775AF0415
:1002EA00A2AF9200C2AF75C7AA75C75543A401A2AF
:1002FA000092AFADAE05A6A2AF9200C2AF75C7AA73
:10030A0075C75543A401A20092AFACAEE924F870B8
:10031A006FED25E0FFE433FEEC54017A002FFFEA8B
:10032A003EFE74F22FFF74FF3EFE75AF0C75A601F8
:10033A00E4F5A7A2AF9200C2AF75C7AA75C7554325
:10034A00A401A20092AFABAEEB644B600EABAEEB76
:10035A0064526007ABAEEB6453701BED543FC39419
:10036A000774809480500A74F62FFF74FF3EFE8053
:10037A0005EF1F70011EEF5401FCEEC313EF13FDCE
:10038A0075C7AA75C7558D8475C7AA75C7558C8553
:10039A00A2AF9200C2AF75C7AA75C755539FFEA2F6
:0303AA000092AF0F
:0103AD00222D
:10089300EF24FD6011146012240270357F021209E7
:1008A3000E7F020207407F0380117F0212090E7F31
:1008B300021207407F0412090E7F04120740A2AF01
:1008C3009200C2AF75C7AA75C7555397DFA20092AE
:0208D300AF2252
:10090E00EF24FC60212402702EA2AF9200C2AF75BC
:10091E00C7AA75C755439720A20092AFE59644DF4C
:10092E0064DF701380F675C7AA75C7554397C0E587
:08093E009644F764F760F8220B
:100A0600E4F591EF24FC60182402701DA2AF920059
:100A1600C2AF75C7AA75C7555397DFA20092AF221A
:0A0A260075C7AA75C75553973F2204
:10074000E4F591A2AF9200C2AFEF24FD60181460EF
:100750003924027048A2AF9200C2AF75C7AA75C70C
:10076000555396FB800FA2AF9200C2AF75C7AA7512
:10077000C755439604A20092AFA2AF9200C2AF75D4
:10078000C7AA75C7555396FD800FA2AF9200C2AF9E
:1007900075C7AA75C755439608A20092AFA20092EA
:0207A000AF2286
:10055C00A2AF9200C2AF75C7AA75C755439F01A23F
:10056C000092AF75A604E4F5A775AE0F75AFE1A2C6
:10057C00AF9200C2AF75C7AA75C75543A504A200B8
:10058C0092AFA2AF9200C2AF75C7AA75C75543A46C
:10059C0001A20092AFE59F5440644060F8A2AF9274
:1005AC0000C2AF75C7AA75C75553A5FBA20092AF81
:1005BC00A2AF9200C2AF75C7AA75C755539FFEA2D2
:1005CC000092AFA2AF9200C2AF75C7AA75C75543D0
:0705DC009F80A20092AF22F4
:10001600A2AF9200C2AF75C7AA75C755439F01A28A
:100026000092AFE4F5A6F5A775AFC0A2AF9200C2E5
:10003600AF75C7AA75C75543A401A20092AFAFAE6C
:1000460075A601A2AF9200C2AF75C7AA75C7554380
:10005600A401A20092AFAEAE75A602A2AF9200C2F4
:10006600AF75C7AA75C75543A401A20092AFADAE3E
:1000760075A603A2AF9200C2AF75C7AA75C755434E
:10008600A401A20092AFACAE75A604A2AF9200C2C4
:10009600AF75C7AA75C75543A401A20092AFABAE10
:1000A6004303F0A2AF9200C2AF75C7AA75C7554306
:1000B600A504A20092AF75AFE2F5A7F5A675AEFF4F
:1000C600A2AF9200C2AF75C7AA75C75543A401A2D5
:1000D6000092AF75AFE18FAEA2AF9200C2AF75C707
:1000E600AA75C75543A401A20092AF75A6018EAEAC
:1000F600A2AF9200C2AF75C7AA75C75543A401A2A5
:100106000092AF75A6028DAEA2AF9200C2AF75C7C0
:10011600AA75C75543A401A20092AF75A6038CAE7B
:10012600A2AF9200C2AF75C7AA75C75543A401A274
:100136000092AF75A6048BAEA2AF9200C2AF75C790
:10014600AA75C75543A401A20092AFA2AF9200C2FE
:10015600AF75C7AA75C75543A504A20092AFA2AF53
:100166009200C2AF75C7AA75C755539FFEA20092EB
:10017600AFE5AA30E326A2AF9200C2AF75C7AA7553
:10018600C75553AAF7A20092AFA2AF9200C2AF75AD
:0C019600C7AA75C755439F80A20092AF16
:0101A200223A
:030000000203AE4A
:1003AE00787FE4F6D8FD9000007FFF7E03E4F0A393
:0A03BE00DFFCDEFA7581570204032C
:1003C8000201A3E493A3F8E493A34003F68001F2A7
:1003D80008DFF48029E493A3F85407240CC8C33336
:1003E800C4540F4420C8834004F456800146F6DF05
:1003F800E4800B01020408102040809007F7E47E97
:10040800019360BCA3FF543F30E509541FFEE493F9
:10041800A360010ECF54C025E060A840B8E493A3C0
:10042800FAE493A3F8E493A3C8C582C8CAC583CAEB
:10043800F0A3C8C582C8CAC583CADFE9DEE780BEA3
:0108440000B3
:10066200EB9FF5F0EA9E42F0E99D42F0E89C45F0EE
:010672002265
:10067300E8600FEFC333FFEE33FEED33FDEC33FCE5
:03068300D8F12289
:10068600BB010789828A830206BE5005E9F8020685
:0A069600ACBBFE05E9F80206CA221B
:0C06A000E6FC08E6FD08E6FE08E6FF2286
:0C06AC00ECF608EDF608EEF608EFF6227A
:0606B8008A838982E473CD
:0C06BE00ECF0A3EDF0A3EEF0A3EFF022AF
:0C06CA00ECF208EDF208EEF208EFF2226C
:00000001FF
