:10038500A2AF9200C2AF75C7AA75C755E4F591A291
:100395000092AF53B3DF43B420C29512059E1205F8
:1003A500C77B007A00790C1203D5EF60F4AC0CAD75
:1003B5000DAE0EAF0F12015A03CD00A7D1A203D186
:1003C50000A7D1A4000003A6C29580D5D29580D1FF
:100577000121000F34FF049CFF024CFF04D1FF044C
:10058700FBFF032D0132000133000443000000008C
:10049C00309131AFE5EFFEADE47C00E42DFFEC3E96
:1004AC00FED3EF9478EE94054017EF94DCEE9405B0
:1004BC00500FE4F533F546F545F544F54375320137
:0404CC0022E4F532FF
:0104D0002209
:10024C0020917BAFE5EFFEADE47C00E42DFFEC3EAE
:10025C00FED3EF9496EE94004023EF94FAEE9400C4
:10026C00501BAF46AE45AD44AC4378011201158F1F
:10027C00468E458D448C43053375320222D3EF9460
:10028C0044EE94024035EF94A8EE9402502DAF4604
:10029C00AE45AD44AC4378011201158F468E458DA9
:1002AC00448C43E5464401F546E545F545E544F502
:0E02BC0044E543F543053375320322E4F53281
:0102CA002211
:1004D100309126AFE5EFFEADE47C00E42DFFEC3E6C
:1004E100FED3EF9444EE9402400CEF94A8EE9402F4
:0904F100500475320122E4F532D9
:0104FA0022DF
:1004FB00309126AFE5EFFEADE47C00E42DFFEC3E42
:10050B00FED3EF9496EE9400400CEF94FAEE940029
:09051B00500475320122E4F532AE
:0105240022B4
:10032D00E52125E025E02422F8120142AB46AA453D
:10033D00A944A843C3120104603BC3E52194017491
:10034D008094805002801AE52125E025E0241EF8D6
:10035D00120142AB46AA45A944A843C31201046049
:10036D0016AF46AE45AD44AC43E52125E025E0246E
:08037D0022F802014E052122C5
:0F05DA0053C8FE75C98943C92053C9AFD2CA227D
:1005B4005393FC43930253F1F043F10143921043EC
:0305C4009410226E
:1005C700E4F532F546F545F544F543F5331205B440
:0305D7000205DA40
:1003D5008B178A18891930CF05C2CFE4F532E5921B
:1003E50030E037E53275F003A42434F808E6FA085E
:1003F500E6F91201945392FEE5336418701CF53347
:1004050012032DE4F532AF46AE45AD44AC43AB1710
:0D041500AA18A9191201287F01227F0022D8
:060597000410000000004A
:03000B0002054F9C
:10054F00C0E0C0D0C091758CC1758AE0E51324015D
:10055F00F513E43512F512E43511F511E43510F504
:08056F0010D091D0D0D0E03291
:10059E005389F0438901438E08758CC1758AE0D268
:0605AE00A9D2AFD28C229D
:0905E900AF13AE12AD11AC1022EB
:02000E00A90740
:10001000E4F591E924F9600C146009240270087574
:10002000A638800375A630A2AF9200C2AF75C7AAEA
:1000300075C755439F01A20092AFE4F5A775AF04C1
:10004000A2AF9200C2AF75C7AA75C75543A401A25B
:100050000092AFADAE05A6A2AF9200C2AF75C7AA1F
:1000600075C75543A401A20092AFACAEE924F87065
:100070006FED25E0FFE433FEEC54017A002FFFEA38
:100080003EFE74F22FFF74FF3EFE75AF0C75A601A5
:10009000E4F5A7A2AF9200C2AF75C7AA75C75543D2
:1000A000A401A20092AFABAEEB644B600EABAEEB23
:1000B00064526007ABAEEB6453701BED543FC394C6
:1000C0000774809480500A74F62FFF74FF3EFE8000
:1000D00005EF1F70011EEF5401FCEEC313EF13FD7B
:1000E00075C7AA75C7558D8475C7AA75C7558C8500
:1000F000A2AF9200C2AF75C7AA75C755539FFEA2A3
:030100000092AFBB
:0101030022D9
:10042200EF24FD6011146012240270357F02120461
:10043200647F020202CB7F0380117F021204647F79
:10044200021202CB7F041204647F041202CBA2AF19
:100452009200C2AF75C7AA75C7555397DFA2009223
:02046200AF22C7
:10046400EF24FC60212402702EA2AF9200C2AF756B
:10047400C7AA75C755439720A20092AFE59644DFFB
:1004840064DF701380F675C7AA75C7554397C0E536
:080494009644F764F760F822BA
:10052500E4F591EF24FC60182402701DA2AF92003F
:10053500C2AF75C7AA75C7555397DFA20092AF2200
:0A05450075C7AA75C75553973F22EA
:1002CB00E4F591A2AF9200C2AFEF24FD6018146069
:1002DB003924027048A2AF9200C2AF75C7AA75C786
:1002EB00555396FB800FA2AF9200C2AF75C7AA758C
:1002FB00C755439604A20092AFA2AF9200C2AF754E
:10030B00C7AA75C7555396FD800FA2AF9200C2AF17
:10031B0075C7AA75C755439608A20092AFA2009263
:02032B00AF22FF
:030000000201B248
:1001B200787FE4F6D8FD9000007FFF7E03E4F0A391
:0A01C200DFFCDEFA75814602020739
:1001CC00020385E493A3F8E493A34003F68001F2C1
:1001DC0008DFF48029E493A3F85407240CC8C33334
:1001EC00C4540F4420C8834004F456800146F6DF03
:1001FC00E4800B0102040810204080900577E47E17
:10020C00019360BCA3FF543F30E509541FFEE493F7
:10021C00A360010ECF54C025E060A840B8E493A3BE
:10022C00FAE493A3F8E493A3C8C582C8CAC583CAE9
:10023C00F0A3C8C582C8CAC583CADFE9DEE780BEA1
:01059D00005D
:10010400EB9FF5F0EA9E42F0E99D42F0E89C45F051
:0101140022C8
:10011500E8600FEFC333FFEE33FEED33FDEC33FC48
:03012500D8F122EC
:10012800BB010789828A8302019A5005E9F8020116
:0A0138004EBBFE05E9F80201A62205
:0C014200E6FC08E6FD08E6FE08E6FF22E9
:0C014E00ECF608EDF608EEF608EFF622DD
:10015A00D083D082E4937012740193700DA3A39399
:10016A00F8740193F5828883E4737402936C7012B5
:10017A007403936D700C7404936E70067405936F18
:0A018A0060DDA3A3A3A3A3A380CA12
:060194008A838982E473F6
:0C019A00ECF0A3EDF0A3EEF0A3EFF022D8
:0C01A600ECF208EDF208EEF208EFF22295
:00000001FF
