:10080E00011500011C00010D00011300011600016D
:0B081E000E00010C00011B0001140083
:10000E001209C51209EE1205FD1209A5A2AF920042
:10001E00C2AF75C7AA75C75543AA40A20092AFA238
:10002E00AF9200C2AF75C7AA75C75543AA40A200CA
:10003E0092AF120A108F0B8E0A8D098C08E50C6098
:10004E002FB286C3E50D9406748094805006B2DFFD
:10005E00B2918004C2DFC291050DC3E50D942874E0
:10006E00809480400BC2DFC291C286E4F50DF50C80
:10007E00120A10C3EF950BFFEE950AFEED9509FDE2
:10008E00EC9508FCE47BF47A01F9F8D31203C7501F
:10009E000302014CA2AF9200C2AF75C7AA75C75535
:1000AE0043AA40A20092AF7B007A0079177D01121D
:1000BE0007C3EF60BBAC17AD18AE19AF1A12041D13
:1000CE0000F700A7D1A200E400A7D1A4012700A742
:1000DE00D1A80000007E750C01D3E50D9406748046
:1000EE009480408CE4F50D80870515E5147024C3CB
:1000FE00E515944674809480500302007E12058E9E
:10010E00D286120A108F128E118D108C0F750E0161
:10011E0002007E12072102007E051CC3E51C9428F6
:10012E0074809480500302007EE4F51CE51B70047D
:10013E007F0180027F008F1B1201C302007EE51437
:10014E006401600302002D120A10C3EF9512FFEE38
:10015E009511FEED9510FDEC950FFCE47B107A27C2
:10016E00F9F8C31203C7400302002DE50E640160C7
:10017E000302002DF50EC286D2DF7FBC7E02FDFC8F
:10018E00120775C2DF7F2C7E017D007C0012077581
:10019E00A2AF9200C2AF75C7AA75C75543AA40A2B7
:1001AE000092AFD2DF7FBC7E027D007C001207750D
:0501BE00C2DF02002D6C
:10058E00A2AF9200C2AF75C7AA75C75543AA40A2C3
:10059E000092AFD286D2DFD2917FBC7E027D007CEC
:1005AE0000120775C291A2AF9200C2AF75C7AA75AD
:1005BE00C75543AA40A20092AF7FBC7E027D007C4D
:1005CE0000120775A2AF9200C2AF75C7AA75C755C4
:1005DE0043AA40A20092AF7FBC7E027D007C001237
:0F05EE000775C2DFD287E4F515751401C28622A6
:10072100E4F547F548A2AF9200C2AF75C7AA75C7F5
:100731005543AA40A20092AFD2DFD2917FBC7E0284
:100741007D007C00120775C291C2DF7F2C7E017D86
:10075100007C001207750548E54870020547C394FF
:1007610002E5476480948040BC750D28C286E4F59B
:0307710014C28728
:010774002262
:1001C300EF607BD2DFD291D2867FBC7E027D007C42
:1001D30000120775C2DFC291C2867F2C7E017D00AB
:1001E3007C00120775A2AF9200C2AF75C7AA75C78C
:1001F3005543AA40A20092AFD291D2867FBC7E0221
:100203007D007C00120775C291C2867F2C7E017D22
:10021300007C00120775A2AF9200C2AF75C7AA7522
:10022300C75543AA40A20092AFD291D2867FBC7E2B
:10023300027D007C00120775C291C286807CD2DFEA
:100243007FBC7E027D007C00120775A2AF9200C2C4
:10025300AF75C7AA75C75543AA40A20092AF7FBC2A
:100263007E027D007C00120775A2AF9200C2AF75BB
:10027300C7AA75C75543AA40A20092AF7FBC7E02AE
:100283007D007C00120775C2DF7F2C7E017D007C20
:1002930000120775A2AF9200C2AF75C7AA75C75502
:1002A30043AA40A20092AFD2DFD2917FBC7E027DEF
:1002B300007C00120775C2DFC291A2AF9200C2AFE9
:0E02C30075C7AA75C75543AA40A20092AF2284
:100829000121000F34FF08CAFF050FFF08FFFF0968
:1008390029FF06C90132000133000443000000000A
:1008CA00309531AFE5EFFEADE47C00E42DFFEC3E60
:1008DA00FED3EF9478EE94054017EF94DCEE94057E
:1008EA00500FE4F533F546F545F544F54375320105
:0408FA0022E4F532CD
:0108FE0022D7
:10050F0020957BAFE5EFFEADE47C00E42DFFEC3EE4
:10051F00FED3EF9496EE94004023EF94FAEE9400FE
:10052F00501BAF46AE45AD44AC4378011203D88F94
:10053F00468E458D448C43053375320222D3EF949A
:10054F0044EE94024035EF94A8EE9402502DAF463E
:10055F00AE45AD44AC4378011203D88F468E458D1E
:10056F00448C43E5464401F546E545F545E544F53C
:0E057F0044E543F543053375320322E4F532BB
:01058D00224B
:1008FF00309526AFE5EFFEADE47C00E42DFFEC3E36
:10090F00FED3EF9444EE9402400CEF94A8EE9402C1
:09091F00500475320122E4F532A6
:0109280022AC
:10092900309526AFE5EFFEADE47C00E42DFFEC3E0B
:10093900FED3EF9496EE9400400CEF94FAEE9400F7
:09094900500475320122E4F5327C
:010952002282
:1006C900E52125E025E02422F8120405AB46AA45D8
:1006D900A944A843C31203C7603BC3E5219401742D
:1006E9008094805002801AE52125E025E0241EF837
:1006F900120405AB46AA45A944A843C31203C7601F
:1007090016AF46AE45AD44AC43E52125E025E024CE
:0807190022F80204110521225F
:0F0A010053C8FE75C98943C92053C9AFD2CA2251
:1009DB005393FC43930253F1F043F10843921043BA
:0309EB0094102243
:1009EE00E4F532F546F545F544F543F5331209DBEA
:0309FE00020A01E9
:1007C3008B478A4889498D4A30CF05C2CFE4F53239
:1007D300E59230E033E53275F003A42434F808E6FB
:1007E300FA08E6F91204575392FEE53364187018B9
:1007F300F533F532AF46AE45AD44AC43AB47AA48FB
:0B080300A9491203EB7F01227F0022B5
:06084900044F0000000056
:03000B0002097D6A
:10097D00C0E0C0D0C091758CC1758AE0E5522401EC
:10098D00F552E43551F551E43550F550E4354FF558
:08099D004FD091D0D0D0E03220
:1009C5005389F0438901438E08758CC1758AE0D23D
:0609D500A9D2AFD28C2272
:090A1000AF52AE51AD50AC4F22C3
:080775008F4C8E4B8D4A8C491C
:10077D00E4F583F582AF82AE83EE3395E0FDFCABFD
:0D078D004CAA4BA94AA849D31203C7402823
:10079A00E4F54EC3E54E9403748094805017E4F553
:1007AA004DC3E54D94FF74809480500500054D803B
:0507BA00F0054E80DE99
:0307BF00A380C054
:0107C2002214
:1005FD00A2AF9200C2AF75C7AA75C755E4F591A217
:10060D000092AF53B3FE43B401A2AF9200C2AF75D7
:10061D00C7AA75C755F591A20092AF53B3FD43B468
:10062D0002A2AF9200C2AF75C7AA75C755F591A2C8
:10063D000092AF53B1BF43B240A2AF9200C2AF75AB
:10064D00C7AA75C755F591A20092AF53B17F43B2BA
:0A065D0080D290C286C287C29122AB
:1009A500D2DC538EBF53DF0775D11275D9EF75D5DC
:1009B5000975DD7853B1FE43B20143DE08C2DF227B
:0202D100A9077B
:1002D300E4F591E924F9600C1460092402700875AF
:1002E300A638800375A630A2AF9200C2AF75C7AA25
:1002F30075C755439F01A20092AFE4F5A775AF04FC
:10030300A2AF9200C2AF75C7AA75C75543A401A295
:100313000092AFADAE05A6A2AF9200C2AF75C7AA59
:1003230075C75543A401A20092AFACAEE924F8709F
:100333006FED25E0FFE433FEEC54017A002FFFEA72
:100343003EFE74F22FFF74FF3EFE75AF0C75A601DF
:10035300E4F5A7A2AF9200C2AF75C7AA75C755430C
:10036300A401A20092AFABAEEB644B600EABAEEB5D
:1003730064526007ABAEEB6453701BED543FC39400
:100383000774809480500A74F62FFF74FF3EFE803A
:1003930005EF1F70011EEF5401FCEEC313EF13FDB5
:1003A30075C7AA75C7558D8475C7AA75C7558C853A
:1003B300A2AF9200C2AF75C7AA75C755539FFEA2DD
:0303C3000092AFF6
:0103C6002214
:10085000EF24FD6011146012240270357F0212082B
:10086000927F020206677F0380117F021208927F47
:10087000021206677F041208927F04120667A2AF75
:100880009200C2AF75C7AA75C7555397DFA20092F1
:02089000AF2295
:10089200EF24FC60212402702EA2AF9200C2AF7539
:1008A200C7AA75C755439720A20092AFE59644DFC9
:1008B20064DF701380F675C7AA75C7554397C0E504
:0808C2009644F764F760F82288
:10095300E4F591EF24FC60182402701DA2AF92000D
:10096300C2AF75C7AA75C7555397DFA20092AF22CE
:0A09730075C7AA75C75553973F22B8
:10066700E4F591A2AF9200C2AFEF24FD60181460C9
:100677003924027048A2AF9200C2AF75C7AA75C7E6
:10068700555396FB800FA2AF9200C2AF75C7AA75EC
:10069700C755439604A20092AFA2AF9200C2AF75AE
:1006A700C7AA75C7555396FD800FA2AF9200C2AF78
:1006B70075C7AA75C755439608A20092AFA20092C4
:0206C700AF2260
:0300000002047582
:10047500787FE4F6D8FD9000007FFF7E03E4F0A3CB
:0A048500DFFCDEFA7581520204CAA2
:10048F0002000EE493A3F8E493A34003F68001F275
:10049F0008DFF48029E493A3F85407240CC8C3336E
:1004AF00C4540F4420C8834004F456800146F6DF3D
:1004BF00E4800B010204081020408090080EE47EB7
:1004CF00019360BCA3FF543F30E509541FFEE49332
:1004DF00A360010ECF54C025E060A840B8E493A3F9
:1004EF00FAE493A3F8E493A3C8C582C8CAC583CA24
:1004FF00F0A3C8C582C8CAC583CADFE9DEE780BEDC
:01084F0000A8
:1003C700EB9FF5F0EA9E42F0E99D42F0E89C45F08C
:0103D7002203
:1003D800E8600FEFC333FFEE33FEED33FDEC33FC83
:0303E800D8F12227
:1003EB00BB010789828A8302045D5005E9F8020488
:0A03FB0011BBFE05E9F802046922B7
:0C040500E6FC08E6FD08E6FE08E6FF2223
:0C041100ECF608EDF608EEF608EFF62217
:10041D00D083D082E4937012740193700DA3A393D3
:10042D00F8740193F5828883E4737402936C7012EF
:10043D007403936D700C7404936E70067405936F52
:0A044D0060DDA3A3A3A3A3A380CA4C
:060457008A838982E47330
:0C045D00ECF0A3EDF0A3EEF0A3EFF02212
:0C046900ECF208EDF208EEF208EFF222CF
:00000001FF
