:03063900010C00B1
:10024C0012074D12077612035D12072DC286120794
:10025C00988F0B8E0A8D098C08120798C3EF950B9B
:10026C00FFEE950AFEED9509FDEC9508FCE47B206C
:10027C007A4EF9F8D312010440D27B007A00790D42
:10028C007D011204CFEF60D1AC0DAD0EAE0FAF10EF
:10029C0012015A02C700A7D1A202D900A7D1A40209
:1002AC00B500A7D1A800000265D2861207988F0B63
:1002BC008E0A8D098C081205CD809E050CC3E50CA9
:1002CC00945A748094804091120709808C12055CBA
:0202DC00808719
:1005CD00E4F511F512D2DFD2917FE87E037D007C38
:1005DD0000120481C291C2DF7FF47E017D007C0098
:1005ED001204810512E51270020511C39403E51181
:0605FD006480948040CFF1
:0106030022D4
:10070900D2DFD2917FE87E037D007C00120481C292
:10071900917FD07E077D007C00120481C2DFD287E1
:04072900E4F50C22C5
:10055C00E4F511F512D2DFD2917FE87E037D007CA9
:10056C0000120481C291C2DF7FF47E017D007C0009
:10057C001204810512E51270020511C39402E511F3
:08058C006480948040CFC28717
:010594002244
:10063C000121000F34FF0604FF02DEFF0663FF06F4
:10064C008DFF042901320001330004430000000037
:10060400309531AFE5EFFEADE47C00E42DFFEC3E28
:10061400FED3EF9478EE94054017EF94DCEE940546
:10062400500FE4F533F546F545F544F543753201CD
:0406340022E4F53295
:01063800229F
:1002DE0020957BAFE5EFFEADE47C00E42DFFEC3E18
:1002EE00FED3EF9496EE94004023EF94FAEE940032
:1002FE00501BAF46AE45AD44AC4378011201158F8D
:10030E00468E458D448C43053375320222D3EF94CD
:10031E0044EE94024035EF94A8EE9402502DAF4671
:10032E00AE45AD44AC4378011201158F468E458D16
:10033E00448C43E5464401F546E545F545E544F56F
:0E034E0044E543F543053375320322E4F532EE
:01035C00227E
:10066300309526AFE5EFFEADE47C00E42DFFEC3ED4
:10067300FED3EF9444EE9402400CEF94A8EE940260
:09068300500475320122E4F53245
:01068C00224B
:10068D00309526AFE5EFFEADE47C00E42DFFEC3EAA
:10069D00FED3EF9496EE9400400CEF94FAEE940096
:0906AD00500475320122E4F5321B
:0106B6002221
:10042900E52125E025E02422F8120142AB46AA4540
:10043900A944A843C3120104603BC3E52194017494
:100449008094805002801AE52125E025E0241EF8D9
:10045900120142AB46AA45A944A843C3120104604C
:1004690016AF46AE45AD44AC43E52125E025E02471
:0804790022F802014E052122C8
:0F07890053C8FE75C98943C92053C9AFD2CA22CC
:100763005393FC43930253F1F043F1084392104334
:03077300941022BD
:10077600E4F532F546F545F544F543F533120763DE
:03078600020789DE
:1004CF008B118A1289138D1430CF05C2CFE4F53208
:1004DF00E59230E033E53275F003A42434F808E6F2
:1004EF00FA08E6F91201945392FEE5336418701876
:1004FF00F533F532AF46AE45AD44AC43AB11AA125E
:0B050F00A9131201287F01227F0022A7
:06065C000419000000007B
:03000B000206E109
:1006E100C0E0C0D0C091758CC1758AE0E51C2401C1
:1006F100F51CE4351BF51BE4351AF51AE43519F53B
:0807010019D091D0D0D0E032F4
:10074D005389F0438901438E08758CC1758AE0D2B7
:06075D00A9D2AFD28C22EC
:09079800AF1CAE1BAD1AAC192216
:080481008F168E158D148C13EB
:10048900E4F583F582AF82AE83EE3395E0FDFCABF4
:0D04990016AA15A914A813D31201044028B7
:1004A600E4F518C3E5189403748094805017E4F5B6
:1004B60017C3E51794FF74809480500500051780D4
:0504C600F0051880DEC6
:0304CB00A380C04B
:0104CE00220B
:10035D00A2AF9200C2AF75C7AA75C755E4F591A2B9
:10036D000092AF53B3FE43B401A2AF9200C2AF757A
:10037D00C7AA75C755F591A20092AF53B3FD43B40B
:10038D0002A2AF9200C2AF75C7AA75C755F591A26B
:10039D000092AF53B1BF43B240A2AF9200C2AF754E
:1003AD00C7AA75C755F591A20092AF53B17F43B25D
:0A03BD0080D290C286C287C291224E
:10072D00D2DC538EBF53DF0775D13E75D97F75D59A
:10073D001F75DD4053B1FE43B20143DE08C2DF2217
:02000E00A90740
:10001000E4F591E924F9600C146009240270087574
:10002000A638800375A630A2AF9200C2AF75C7AAEA
:1000300075C755439F01A20092AFE4F5A775AF04C1
:10004000A2AF9200C2AF75C7AA75C75543A401A25B
:100050000092AFADAE05A6A2AF9200C2AF75C7AA1F
:1000600075C75543A401A20092AFACAEE924F87065
:100070006FED25E0FFE433FEEC54017A002FFFEA38
:100080003EFE74F22FFF74FF3EFE75AF0C75A601A5
:10009000E4F5A7A2AF9200C2AF75C7AA75C75543D2
:1000A000A401A20092AFABAEEB644B600EABAEEB23
:1000B00064526007ABAEEB6453701BED543FC394C6
:1000C0000774809480500A74F62FFF74FF3EFE8000
:1000D00005EF1F70011EEF5401FCEEC313EF13FD7B
:1000E00075C7AA75C7558D8475C7AA75C7558C8500
:1000F000A2AF9200C2AF75C7AA75C755539FFEA2A3
:030100000092AFBB
:0101030022D9
:10051A00EF24FD6011146012240270357F02120567
:10052A00957F020203C77F0380117F021205957F20
:10053A00021203C77F041205957F041203C7A2AFF4
:10054A009200C2AF75C7AA75C7555397DFA200922A
:02055A00AF22CE
:10059500EF24FC60212402702EA2AF9200C2AF7539
:1005A500C7AA75C755439720A20092AFE59644DFC9
:1005B50064DF701380F675C7AA75C7554397C0E504
:0805C5009644F764F760F82288
:1006B700E4F591EF24FC60182402701DA2AF9200AC
:1006C700C2AF75C7AA75C7555397DFA20092AF226D
:0A06D70075C7AA75C75553973F2257
:1003C700E4F591A2AF9200C2AFEF24FD601814606C
:1003D7003924027048A2AF9200C2AF75C7AA75C789
:1003E700555396FB800FA2AF9200C2AF75C7AA758F
:1003F700C755439604A20092AFA2AF9200C2AF7551
:10040700C7AA75C7555396FD800FA2AF9200C2AF1A
:1004170075C7AA75C755439608A20092AFA2009266
:02042700AF2202
:030000000201B248
:1001B200787FE4F6D8FD9000007FFF7E03E4F0A391
:0A01C200DFFCDEFA75814602020739
:1001CC0002024CE493A3F8E493A34003F68001F2FB
:1001DC0008DFF48029E493A3F85407240CC8C33334
:1001EC00C4540F4420C8834004F456800146F6DF03
:1001FC00E4800B0102040810204080900639E47E54
:10020C00019360BCA3FF543F30E509541FFEE493F7
:10021C00A360010ECF54C025E060A840B8E493A3BE
:10022C00FAE493A3F8E493A3C8C582C8CAC583CAE9
:10023C00F0A3C8C582C8CAC583CADFE9DEE780BEA1
:010662000097
:10010400EB9FF5F0EA9E42F0E99D42F0E89C45F051
:0101140022C8
:10011500E8600FEFC333FFEE33FEED33FDEC33FC48
:03012500D8F122EC
:10012800BB010789828A8302019A5005E9F8020116
:0A0138004EBBFE05E9F80201A62205
:0C014200E6FC08E6FD08E6FE08E6FF22E9
:0C014E00ECF608EDF608EEF608EFF622DD
:10015A00D083D082E4937012740193700DA3A39399
:10016A00F8740193F5828883E4737402936C7012B5
:10017A007403936D700C7404936E70067405936F18
:0A018A0060DDA3A3A3A3A3A380CA12
:060194008A838982E473F6
:0C019A00ECF0A3EDF0A3EEF0A3EFF022D8
:0C01A600ECF208EDF208EEF208EFF22295
:00000001FF
